:100C54006B6579315F74696D20616C61726D0A0036
:100C64006B6579325F74696D20616C61726D0A0025
:090B9F00012E00012C00012D00C3
:100CA700438E805389F85389F7758AA0758CF6D2DD
:040CB7008CD2A92210
:100AA3001208A5E52C75F01484E5F07009120BD734
:100AB30012036A120B02E52C6405703290000AE0FF
:100AC30030E11254FDF0120CE67BFF7A0C795412DC
:100AD3000070120CDD90000DE030E11254FDF012B5
:100AE3000CE67BFF7A0C7964120070120CDD052C86
:0E0AF300C3E52C9464748094804003E4F52CD9
:010B010022D1
:03000B000209CB1C
:1009CB00C0E0C0F0C083C082C0D075D000C000C0F2
:0D09DB0001C002C003C004C005C006C00773
:1009E800052DC3E52D940A74809480400F752D0061
:1009F800E52E94FF748094805002052E1206ABE514
:100A08002230E113E527B44104D2A68007E527B4D4
:070A18004202C2A65322FDB9
:100A1F00D007D006D005D004D003D002D001D0002B
:0B0A2F00D0D0D082D083D0F0D0E032D5
:100B5D00E4F594F593F592F591F596F595F5B2F5D5
:100B6D00B1120CA7D2ACD2AF120A3A120CDD120C94
:100B7D0032AF2E7E00D3EF94007480948040F2EF5C
:100B8D0094FA748094804003752EFA152E120AA3E0
:020B9D0080DFF7
:0C0BA8000A220000000000000000000015
:1006AB00E52B64016003020758E52614601E1460F5
:1006BB003614606914607B24046003020758E5223A
:1006CB0020E203020758752601020758120CF705A2
:1006DB0024C3E524940A7480948040717524FFE44C
:1006EB00F52575260280660524C3E524940A7480DB
:1006FB009480401AE4F524E52313F5230525C3E57F
:10070B00259408748094804005E4F525801FE5232B
:10071B0030E005120CF48035120CF780300524C341
:10072B00E524940A748094804023E4F52475260410
:10073B00801B0524120CF4C3E524940A7480948066
:10074B00400BE4F5245322FB432201F526E52B60F5
:10075B0003020800E52A14601F146032146067144A
:10076B00607824046003020800120003EF600302A8
:10077B000800752A01F528220528C3E528940A7478
:10078B008094804070E4F528F529752A022205280B
:10079B00E52864057016E527C313F527120003EF50
:1007AB006005432780800353277F0529C3E52894E1
:1007BB000A74809480403EE4F528E52994087480FF
:1007CB009480403180100528C3E528940A748094E6
:1007DB00804022E4F528752A04220528C3E52894D5
:1007EB000574809480400E120003EF6008E4F52836
:0607FB00432202F52A2250
:100C8E00E522540160FAE52670F65322FE8F2343C7
:090C9E002204E522540160FA224F
:100C0E008B2F8A308931AF051DEF6017AB2F053161
:100C1E00E531AA307002053014F9120801FF120CEA
:040C2E008E80E322AF
:050CEF00AE07020C8EAF
:0F0CCE005322FDE4F529F528F527F52AF52B2209
:100CBB004322015322FBE4F525F524F523F5267594
:030CCB002B0122D8
:090CDD00120CCEE4F594F593220B
:06000300A280E433FF229D
:090CE600120CBBE4F594F5932215
:030CF400D2802289
:030CF700C2802296
:0D0BB4004A000000000000000000000000EA
:100A3A00E4900010F0900010E0C394027480948057
:100A4A005056E0FF75F005A42400F582E43400F561
:100A5A0083E0548FF0EF75F005A42401F582E434A5
:100A6A0000F583E054F04409F0900010E0FF75F0BF
:100A7A0005A42404F582E43400F5837432F0EF759A
:100A8A00F005A42402F582E43400F583E04402F080
:080A9A00900010E004F0809DC3
:010AA2002231
:10036A00E4900010F0900010E0FFC39402748094AF
:10037A008040030206AAEF75F005A42400F582E482
:10038A003400F583E0FFC454071470030204C51453
:10039A0070030205381470030205E72403600302A0
:1003AA00068CEFC4131313540130E059900010E087
:1003BA0075F005A42400F582E43400F583E0FF54C7
:1003CA00F0FEEF540FFF04540F4EF0C3EF94017484
:1003DA00809480500302049C900010E0FF75F005A1
:1003EA00A42400F582E43400F583E0548F4410F02D
:1003FA00EF75F005A42400F582E43400F583E05497
:10040A00F0F002049C900010E0FF75F005A42400AF
:10041A00F582E43400F583E054F0F0EF75F005A4BA
:10042A002402F582E43400F583E04402F0900010DF
:10043A00E0FF75F005A42402F582E43400F583E0B8
:10044A0054FEF0EF75F005A42402F582E43400F5B9
:10045A0083E054F7F0900010E0FF75F005A4240241
:10046A00F582E43400F583E054FBF0EF75F005A45F
:10047A002402F582E43400F583E054EFF090001092
:10048A00E075F005A42402F582E43400F583E05413
:10049A00DFF0900010E0FF75F005A42403F582E474
:1004AA003400F583E4F0EF75F005A42401F582E445
:1004BA003400F583E0540FF00206A1900010E0FF2B
:1004CA0075F005A42400F582E43400F583E0FEC447
:1004DA00131313540130E052900010E0FD75F0053B
:1004EA00A42402F582E43400F583E054FDF0ED75AE
:1004FA00F005A42402F582E43400F583E04401F017
:10050A00900010E0FD75F005A42402F582E43400A1
:10051A00F583E04408F0ED75F005A42400F582E4C3
:10052A003400F583E0548F020673EF02067C9000D4
:10053A0010E0FF75F005A42402F582E43400F58387
:10054A00E054F7F0EF75F005A42400F582E43400D6
:10055A00F583E0C4131313540130E067900010E0F0
:10056A0075F005A42404F582E43400F583E0FFD392
:10057A0094007480948050030206A1900010E075E4
:10058A00F005A42403F582E43400F583E004F0C303
:10059A009F50030206A1900010E0FF75F005A42405
:1005AA0002F582E43400F583E04410F0EF75F005BB
:1005BA00A42400F582E43400F583E0548F4430F03B
:1005CA000206A1900010E0FF75F005A42402F5824E
:1005DA00E43400F583E04404F0EF02069090001042
:1005EA00E0FF75F005A42400F582E43400F583E009
:1005FA00FEC4131313540130E074EF75F005A424FC
:10060A0001F582E43400F583E0FF540FFDD3940032
:10061A007480948050030206A1900010E075F005E2
:10062A00A42401F582E43400F583E0FCEFC4540FFE
:10063A00FFEC540FFCEF04540FFFC454F04CF0EFDE
:10064A00C39D4053900010E0FF75F005A42401F506
:10065A0082E43400F583E0540FF0EF75F005A4242A
:10066A0002F582E43400F583E04420F0802990000A
:10067A0010E075F005A42400F582E43400F583EE59
:10068A008012900010E075F005A42400F582E4348D
:10069A0000F583E0548FF0900010E004F002036F3D
:0106AA00222D
:100C74006B6579315F636E743A25640A006B65793C
:0A0C8400325F636E743A25640A00C3
:080BC100021C0000021E0000EE
:100B0200900002E030E226051DE51D7002051C90F2
:100B1200000BE4F0A37403F0120CE67BFF7A0C796D
:100B220074851C0B851D0C120070120CDD900007E1
:100B3200E030E226051FE51F7002051E90000EE45C
:100B4200F0A37403F0120CE67BFF7A0C7981851E08
:0A0B52000B851F0C120070120CDD61
:010B5C002276
:100BD70020A3047F0180027F00EF5401C433333325
:100BE7005480FF900000E0547F4FF020A4047F0161
:100BF70080027F00EF5401C43333335480FF9000E9
:070C070005E0547F4FF022CD
:0D0BC90046000A000000000000023200009B
:100C3200E4FFEFC39402748094805015EF75F003C3
:100C4200A4240AF582E43400F583E04401F00F8025
:010C5200E1C0
:010C5300227E
:1008A5000533E533AE327002053214C394FFEE947E
:1008B500034076E4F532F533FFEFC3940274809478
:1008C500805066EF75F003A4240AF582E43400F540
:1008D50083E030E051EF75F003A4240BF582E43496
:1008E50000F583E0FCA3E04C603CEF75F003A42425
:1008F5000BF582E43400F58374FFF5F012081AEF66
:1009050075F003A4240BF582E43400F583E0FCA321
:10091500E04C7012EF75F003A4240AF582E434006C
:10092500F583E04402F00F8090C3E53394FFE53290
:0909350094014003D20922C20919
:01093E002296
:0300000002093FB3
:0C093F00787FE4F6D8FD7581330209864C
:10080100BB010689828A83E0225002E722BBFE02F5
:09081100E32289828A83E4932228
:10081A00C5F0F8A3E028F0C5F0F8E5821582700269
:06082A001583E038F02206
:10000E00E517240BF8E60517227808300702780B5F
:10001E00E475F00112086F0208012000EB7F2ED26A
:10002E00008018EF540F2490D43440D4FF30040BCA
:10003E00EF24BFB41A0050032461FFE518600215C7
:10004E0018051BE51B7002051A30070D7808E475BC
:10005E00F00112086FEF02085D020CEF7403D20775
:10006E008003E4C207F5178B088A09890AE4F5189C
:10007E00F51AF51BE51860077F2012004980F5750B
:10008E0019FFC201C200C202C203C205C206C208E3
:10009E00120017FF700D3007057F0012005AAF1BBC
:1000AE00AE1A22B4255FC2D5C204120017FF24D0A7
:1000BE00B40A00501A75F00A781830D50508B6FF44
:1000CE000106C6A426F620D5047002D20380D924D8
:1000DE00CFB41A00EF5004C2E5D20402025AD20184
:1000EE0080C6D20080C0D20280BCD2D580BAD205E2
:1000FE0080B47F201200492002077401B518004019
:10010E00F112000EFF120049020082D208D20680C0
:10011E009512000EFB12000EFA12000EF94A4B70E9
:10012E0006792B7A037BFF20022EE518602A7E00CB
:10013E008E8275830012083060060EEE651970F01F
:10014E00C2D5EBC0E0EAC0E0E9C0E0EE1202A1D0F9
:10015E00E0F9D0E0FAD0E0FB120801FF60AAEBC094
:10016E00E0EAC0E0E9C0E0120049D0E02401F9D095
:10017E00E03400FAD0E0FBE5190460DCD519D98033
:10018E00877BFF7A02799DD202809C79108002795A
:10019E0008C206C2088008D2D5790A8004790AC23C
:1001AE00D5E519047002F519E4FAFDFEFF12000EF2
:1001BE00FC7B0820011312000EFD7B1030000A128A
:1001CE00000EFE12000EFF7B20EC3382D592D5502E
:1001DE0013C3E43000069FFFE49EFEE42001039D5E
:1001EE00FDE49CFCE4CBF8C201EC700CCFCECDCC80
:1001FE00E824F8F870F38017C3EF33FFEE33FEED0B
:10020E0033FDEC33FCEB33FB994002FB0FD8E9EBEB
:10021E00300105F8D0E0C448B201C0E00AEC4D4E02
:10022E004F78207B0070C2EAB5190040BCC0E012C6
:10023E0002A3D0F0D0E0200104C4C0E0C4B201C0DB
:10024E00F0120032D0F0D5F0EB02008212087F01DE
:10025E001F5301995800F04C00EC42019D4F01A52F
:0F026E004401A54901054301AB55018F46018F9E
:10027D0045018F47034B5000F42D00F82E011B2B29
:10028D0000FC2301192003342A00B4480000011397
:10029D003F3F3F00790AA2D5200314300509B9105C
:1002AD00020404B9080104A2D5200602500104205D
:1002BD0002689202B518005034C0E07F2030031957
:1002CD007F30A20272067205500F1202FAC202C2EC
:1002DD0006C205C2087F30800F300503E9C0E01269
:1002ED000049300503D0E0F9D0E0B518CC30051742
:1002FD007F30B9100C1200497F583004077F788089
:10030D0003B908031200493002057F2D0200497F11
:10031D00202008F87F2B2006F322920280CF286E32
:10032D00756C6C2900D20112000E3001F8C20178F3
:10033D001830D50108F60200B42D5043495812006B
:10034D000E2403B405004001E49003469312003AD5
:0D035D00743A12003AD20375180402019997
:10094B00020B5DE493A3F8E493A34003F68001F25A
:10095B0008DFF48029E493A3F85407240CC8C333AD
:10096B00C4540F4420C8834004F456800146F6DF7C
:10097B00E4800B0102040810204080900B9FE47E62
:10098B00019360BCA3FF543F30E509541FFEE49371
:10099B00A360010ECF54C025E060A840B8E493A338
:1009AB00FAE493A3F8E493A3C8C582C8CAC583CA63
:1009BB00F0A3C8C582C8CAC583CADFE9DEE780BE1B
:010BD600001E
:10083000BB010CE58229F582E5833AF583E022507D
:1008400006E92582F8E622BBFE06E92582F8E222C7
:0D085000E58229F582E5833AF583E49322E1
:10085D00BB010689828A83F0225002F722BBFE017A
:02086D00F32274
:10086F00FAE6FB0808E6F925F0F618E6CA3AF6228A
:10087F00D083D082F8E4937012740193700DA3A308
:10088F0093F8740193F5828883E47374029368601C
:06089F00EFA3A3A380DF1C
:00000001FF
