:0900000002093CA280E433FF2256
:10000B000209C8E517240BF8E60517227808300714
:10001B0002780BE475F00112086C0207FE2000EB6E
:10002B007F2ED2008018EF540F2490D43440D4FF8D
:10003B0030040BEF24BFB41A0050032461FFE51802
:10004B0060021518051BE51B7002051A30070D78A9
:10005B0008E475F00112086CEF02085A020C887460
:10006B0003D2078003E4C207F5178B088A09890AB4
:10007B00E4F518F51AF51BE51860077F2012004907
:10008B0080F57519FFC201C200C202C203C205C2CC
:10009B0006C208120017FF700D3007057F00120013
:1000AB005AAF1BAE1A22B4255FC2D5C20412001779
:1000BB00FF24D0B40A00501A75F00A781830D50511
:1000CB0008B6FF0106C6A426F620D5047002D2039B
:1000DB0080D924CFB41A00EF5004C2E5D204020237
:1000EB005AD20180C6D20080C0D20280BCD2D58049
:1000FB00BAD20580B47F201200492002077401B5E3
:10010B00180040F112000EFF120049020082D208C3
:10011B00D206809512000EFB12000EFA12000EF999
:10012B004A4B7006792B7A037BFF20022EE5186071
:10013B002A7E008E8275830012082D60060EEE65F6
:10014B001970F0C2D5EBC0E0EAC0E0E9C0E0EE12F6
:10015B0002A1D0E0F9D0E0FAD0E0FB1207FEFF607D
:10016B00AAEBC0E0EAC0E0E9C0E0120049D0E0240D
:10017B0001F9D0E03400FAD0E0FBE5190460DCD5DE
:10018B0019D980877BFF7A02799DD202809C7910E6
:10019B0080027908C206C2088008D2D5790A800489
:1001AB00790AC2D5E519047002F519E4FAFDFEFFD0
:1001BB0012000EFC7B0820011312000EFD7B103089
:1001CB00000A12000EFE12000EFF7B20EC3382D5CC
:1001DB0092D55013C3E43000069FFFE49EFEE4204B
:1001EB0001039DFDE49CFCE4CBF8C201EC700CCF49
:1001FB00CECDCCE824F8F870F38017C3EF33FFEEC5
:10020B0033FEED33FDEC33FCEB33FB994002FB0F7C
:10021B00D8E9EB300105F8D0E0C448B201C0E00AE0
:10022B00EC4D4E4F78207B0070C2EAB5190040BCF4
:10023B00C0E01202A3D0F0D0E0200104C4C0E0C49F
:10024B00B201C0F0120032D0F0D5F0EB02008212F6
:10025B00087C011F5301995800F04C00EC42019DA2
:10026B004F01A54401A54901054301AB55018F463B
:10027B00018F45018F47034B5000F42D00F82E01E1
:10028B001B2B00FC2301192003342A00B448000067
:10029B0001133F3F3F00790AA2D520031430050913
:1002AB00B910020404B9080104A2D52006025001BA
:1002BB00042002689202B518005034C0E07F203051
:1002CB0003197F30A20272067205500F1202FAC296
:1002DB0002C206C205C2087F30800F300503E9C099
:1002EB00E0120049300503D0E0F9D0E0B518CC306E
:1002FB0005177F30B9100C1200497F583004077F67
:10030B00788003B908031200493002057F2D0200E3
:10031B00497F202008F87F2B2006F322920280CF02
:10032B00286E756C6C2900D20112000E3001F8C2D8
:10033B0001781830D50108F60200B42D5043495806
:10034B0012000E2403B405004001E49003469312FF
:10035B00003A743A12003AD203751804020199E478
:10036B00900010F0900010E0FFC394027480948012
:10037B0040030206A7EF75F005A42400F582E434D0
:10038B0000F583E0FFC454071470030204C5147016
:10039B00030205381470030205E724036003020609
:1003AB0089EFC4131313540130E059900010E0751A
:1003BB00F005A42400F582E43400F583E0FF54F04B
:1003CB00FEEF540FFF04540F4EF0C3EF94017480F3
:1003DB009480500302049C900010E0FF75F005A47C
:1003EB002400F582E43400F583E0548F4410F0EFE1
:1003FB0075F005A42400F582E43400F583E054F095
:10040B00F002049C900010E0FF75F005A42400F5A9
:10041B0082E43400F583E054F0F0EF75F005A4248A
:10042B0002F582E43400F583E04402F0900010E022
:10043B00FF75F005A42402F582E43400F583E05443
:10044B00FEF0EF75F005A42402F582E43400F58389
:10045B00E054F7F0900010E0FF75F005A42402F5CE
:10046B0082E43400F583E054FBF0EF75F005A4242F
:10047B0002F582E43400F583E054EFF0900010E0D5
:10048B0075F005A42402F582E43400F583E054DF13
:10049B00F0900010E0FF75F005A42403F582E4341E
:1004AB0000F583E4F0EF75F005A42401F582E43444
:1004BB0000F583E0540FF002069E900010E0FF75EC
:1004CB00F005A42400F582E43400F583E0FEC413A8
:1004DB001313540130E052900010E0FD75F005A4A9
:1004EB002402F582E43400F583E054FDF0ED75F061
:1004FB0005A42402F582E43400F583E04401F09076
:10050B000010E0FD75F005A42402F582E43400F53B
:10051B0083E04408F0ED75F005A42400F582E43483
:10052B0000F583E0548F020670EF020679900010FD
:10053B00E0FF75F005A42402F582E43400F583E0B6
:10054B0054F7F0EF75F005A42400F582E43400F5C0
:10055B0083E0C4131313540130E067900010E0756F
:10056B00F005A42404F582E43400F583E0FFD39472
:10057B000074809480500302069E900010E075F08A
:10058B0005A42403F582E43400F583E004F0C39F53
:10059B00500302069E900010E0FF75F005A42402A4
:1005AB00F582E43400F583E04410F0EF75F005A418
:1005BB002400F582E43400F583E0548F4430F002DC
:1005CB00069E900010E0FF75F005A42402F582E46E
:1005DB003400F583E04404F0EF02068D900010E048
:1005EB00FF75F005A42400F582E43400F583E0FEEA
:1005FB00C4131313540130E071EF75F005A42401FB
:10060B00F582E43400F583E0FF540FFDD3940074BE
:10061B00809480407E900010E075F005A42401F5D5
:10062B0082E43400F583E0FCEFC4540FFFEC540F6D
:10063B00FCEF04540FFFC454F04CF0EFC39D405338
:10064B00900010E0FF75F005A42401F582E434005E
:10065B00F583E0540FF0EF75F005A42402F582E466
:10066B003400F583E04420F08029900010E075F011
:10067B0005A42400F582E43400F583EE801290008B
:10068B0010E075F005A42400F582E43400F583E056
:10069B00548FF0900010E004F002036F22E52B64FE
:1006AB00016003020755E52614601E1460361460C2
:1006BB006914607B24046003020755E52220E203E2
:1006CB00020755752601020755120C900524C3E548
:1006DB0024940A7480948040717524FFE4F5257589
:1006EB00260280660524C3E524940A748094804016
:1006FB001AE4F524E52313F5230525C3E525940812
:10070B00748094804005E4F525801FE52330E005D7
:10071B00120C8D8035120C9080300524C3E5249487
:10072B000A748094804023E4F524752604801B050D
:10073B0024120C8DC3E524940A74809480400BE43E
:10074B00F5245322FB432201F526E52B6003020718
:10075B00FDE52A14601F146032146067146078245E
:10076B000460030207FD120003EF60030207FD752F
:10077B002A01F528220528C3E528940A7480948061
:10078B004070E4F528F529752A02220528E528642E
:10079B00057016E527C313F527120003EF60054319
:1007AB002780800353277F0529C3E528940A74808B
:1007BB009480403EE4F528E52994087480948040A9
:1007CB003180100528C3E528940A74809480402258
:1007DB00E4F528752A04220528C3E52894057480BE
:1007EB009480400E120003EF6008E4F528432202C8
:1007FB00F52A22BB010689828A83E0225002E72276
:10080B00BBFE02E32289828A83E49322C5F0F8A31C
:10081B00E028F0C5F0F8E582158270021583E03808
:10082B00F022BB010CE58229F582E5833AF583E0E2
:10083B00225006E92582F8E622BBFE06E92582F85E
:10084B00E222E58229F582E5833AF583E49322BB24
:10085B00010689828A83F0225002F722BBFE01F344
:10086B0022FAE6FB0808E6F925F0F618E6CA3AF68E
:10087B0022D083D082F8E4937012740193700DA38D
:10088B00A393F8740193F5828883E47374029368DD
:10089B0060EFA3A3A380DF0530E530AE2F70020518
:1008AB002F14C394FFEE94034076E4F52FF530FF3D
:1008BB00EFC39402748094805066EF75F003A42408
:1008CB000AF582E43400F583E030E051EF75F00374
:1008DB00A4240BF582E43400F583E0FCA3E04C6028
:1008EB003CEF75F003A4240BF582E43400F583741C
:1008FB00FFF5F0120817EF75F003A4240BF582E453
:10090B003400F583E0FCA3E04C7012EF75F003A408
:10091B00240AF582E43400F583E04402F00F809062
:10092B00C3E53094FFE52F94014003D20922C2099D
:10093B0022787FE4F6D8FD758130020983020B58CB
:10094B00E493A3F8E493A34003F68001F208DFF4E9
:10095B008029E493A3F85407240CC8C333C4540F61
:10096B004420C8834004F456800146F6DFE4800B34
:10097B000102040810204080900B9AE47E019360E2
:10098B00BCA3FF543F30E509541FFEE493A3600161
:10099B000ECF54C025E060A840B8E493A3FAE493CB
:1009AB00A3F8E493A3C8C582C8CAC583CAF0A3C879
:1009BB00C582C8CAC583CADFE9DEE780BEC0E0C016
:1009CB00F0C083C082C0D075D000C000C001C0028F
:1009DB00C003C004C005C006C007052DC3E52D9498
:1009EB000A74809480400F752D00E52E94FF74805F
:1009FB0094805002052E1206A8E52230E113E5275C
:100A0B00B44104D2A68007E527B44202C2A6532202
:100A1B00FDD007D006D005D004D003D002D001D032
:100A2B0000D0D0D082D083D0F0D0E032E490001050
:100A3B00F0900010E0C39402748094805054E0FF57
:100A4B0075F005A42400F582E43400F583E0548F9F
:100A5B00F0EF75F005A42401F582E43400F583E092
:100A6B00440FF0900010E0FF75F005A42404F5820C
:100A7B00E43400F5837432F0EF75F005A42402F52D
:100A8B0082E43400F583E04402F0900010E004F0BF
:100A9B00809F221208A2E52C75F01484E5F07009F2
:100AAB00120BD212036A120AFDE52C640570329008
:100ABB00000AE030E11254FDF0120C7F7BFF7A0C40
:100ACB007993120070120C7690000DE030E1125405
:100ADB00FDF0120C7F7BFF7A0C79A3120070120CC5
:100AEB0076052CC3E52C9464748094804003E4F564
:100AFB002C22900002E030E226051DE51D70020558
:100B0B001C90000BE4F0A37403F0120C7F7BFF7AB4
:100B1B000C79B3851C0B851D0C120070120C769092
:100B2B000007E030E226051FE51F7002051E90004E
:100B3B000EE4F0A37403F0120C7F7BFF7A0C79C0E8
:100B4B00851E0B851F0C120070120C7622E4F59497
:100B5B00F593F592F591F596F595F5B2F5B1120C75
:100B6B0040D2ACD2AF120A37120C76120C05AF2E54
:100B7B007E00D3EF94007480948040F2EF94FA746B
:100B8B008094804003752EFA152E120A9E80DF0189
:100B9B002E00012C00012D000A2200000000000095
:100BAB00000000004A0000000000000000000000F0
:100BBB0000021C0000021E000046000A000000009C
:100BCB000000022F0000007F0020A3027F01EF54E2
:100BDB0001C43333335480FF900000E0547F4FF057
:100BEB007F0020A4027F01EF5401C43333335480C0
:100BFB00FF900005E0547F4FF022E4FFEFC3940217
:100C0B00748094805015EF75F003A4240AF582E4E8
:100C1B003400F583E04401F00F80E122E52254011A
:100C2B0060FAE52670F65322FE8F23432204E52259
:100C3B00540160FA22438E805389F85389F7758AE1
:100C4B00A0758CF6D28CD2A9224322015322FBE44D
:100C5B00F525F524F523F526752B01225322FDE40A
:100C6B00F529F528F527F52AF52B22120C67E4F563
:100C7B0094F59322120C54E4F594F59322AE0702EB
:100C8B000C27D28022C280226B6579315F74696D2B
:100C9B0020616C61726D0A006B6579325F74696DEE
:100CAB0020616C61726D0A006B6579315F636E74E4
:100CBB003A25640A006B6579325F636E743A25647A
:020CCB000A001D
:00000001FF
